{
  "_format": "hh-sol-artifact-1",
  "contractName": "MyToken",
  "sourceName": "contracts/MyToken.sol",
  "abi": [
    {
      "inputs": [
        {
          "internalType": "string",
          "name": "_name",
          "type": "string"
        },
        {
          "internalType": "string",
          "name": "_symbol",
          "type": "string"
        },
        {
          "internalType": "uint8",
          "name": "_decimal",
          "type": "uint8"
        }
      ],
      "stateMutability": "nonpayable",
      "type": "constructor"
    },
    {
      "inputs": [],
      "name": "decimals",
      "outputs": [
        {
          "internalType": "uint8",
          "name": "",
          "type": "uint8"
        }
      ],
      "stateMutability": "view",
      "type": "function"
    },
    {
      "inputs": [],
      "name": "name",
      "outputs": [
        {
          "internalType": "string",
          "name": "",
          "type": "string"
        }
      ],
      "stateMutability": "view",
      "type": "function"
    },
    {
      "inputs": [],
      "name": "symbol",
      "outputs": [
        {
          "internalType": "string",
          "name": "",
          "type": "string"
        }
      ],
      "stateMutability": "view",
      "type": "function"
    }
  ],
  "bytecode": "0x608060405234801561001057600080fd5b506040516104db3803806104db83398101604081905261002f9161011e565b600061003b848261022a565b506001610048838261022a565b506002805460ff191660ff92909216919091179055506102e89050565b634e487b7160e01b600052604160045260246000fd5b600082601f83011261008c57600080fd5b81516001600160401b038111156100a5576100a5610065565b604051601f8201601f19908116603f011681016001600160401b03811182821017156100d3576100d3610065565b6040528181528382016020018510156100eb57600080fd5b60005b8281101561010a576020818601810151838301820152016100ee565b506000918101602001919091529392505050565b60008060006060848603121561013357600080fd5b83516001600160401b0381111561014957600080fd5b6101558682870161007b565b602086015190945090506001600160401b0381111561017357600080fd5b61017f8682870161007b565b925050604084015160ff8116811461019657600080fd5b809150509250925092565b600181811c908216806101b557607f821691505b6020821081036101d557634e487b7160e01b600052602260045260246000fd5b50919050565b601f82111561022557806000526020600020601f840160051c810160208510156102025750805b601f840160051c820191505b81811015610222576000815560010161020e565b50505b505050565b81516001600160401b0381111561024357610243610065565b6102578161025184546101a1565b846101db565b6020601f82116001811461028b57600083156102735750848201515b600019600385901b1c1916600184901b178455610222565b600084815260208120601f198516915b828110156102bb578785015182556020948501946001909201910161029b565b50848210156102d95786840151600019600387901b60f8161c191681555b50505050600190811b01905550565b6101e4806102f76000396000f3fe608060405234801561001057600080fd5b50600436106100415760003560e01c806306fdde0314610046578063313ce5671461006457806395d89b4114610083575b600080fd5b61004e61008b565b60405161005b9190610126565b60405180910390f35b6002546100719060ff1681565b60405160ff909116815260200161005b565b61004e610119565b6000805461009890610174565b80601f01602080910402602001604051908101604052809291908181526020018280546100c490610174565b80156101115780601f106100e657610100808354040283529160200191610111565b820191906000526020600020905b8154815290600101906020018083116100f457829003601f168201915b505050505081565b6001805461009890610174565b602081526000825180602084015260005b818110156101545760208186018101516040868401015201610137565b506000604082850101526040601f19601f83011684010191505092915050565b600181811c9082168061018857607f821691505b6020821081036101a857634e487b7160e01b600052602260045260246000fd5b5091905056fea2646970667358221220c962eac68520ae35c8e7d77607511fc9b9db54b63f893206312b8ea05466d82464736f6c634300081c0033",
  "linkReferences": {},
  "deployedLinkReferences": {}
}