{
  "_format": "hh-sol-artifact-1",
  "contractName": "MyToken",
  "sourceName": "contracts/MyToken.sol",
  "abi": [
    {
      "inputs": [
        {
          "internalType": "string",
          "name": "_name",
          "type": "string"
        },
        {
          "internalType": "string",
          "name": "_symbol",
          "type": "string"
        },
        {
          "internalType": "uint8",
          "name": "_decimal",
          "type": "uint8"
        }
      ],
      "stateMutability": "nonpayable",
      "type": "constructor"
    },
    {
      "inputs": [
        {
          "internalType": "address",
          "name": "",
          "type": "address"
        }
      ],
      "name": "balanceOf",
      "outputs": [
        {
          "internalType": "uint256",
          "name": "",
          "type": "uint256"
        }
      ],
      "stateMutability": "view",
      "type": "function"
    },
    {
      "inputs": [],
      "name": "decimals",
      "outputs": [
        {
          "internalType": "uint8",
          "name": "",
          "type": "uint8"
        }
      ],
      "stateMutability": "view",
      "type": "function"
    },
    {
      "inputs": [],
      "name": "name",
      "outputs": [
        {
          "internalType": "string",
          "name": "",
          "type": "string"
        }
      ],
      "stateMutability": "view",
      "type": "function"
    },
    {
      "inputs": [],
      "name": "symbol",
      "outputs": [
        {
          "internalType": "string",
          "name": "",
          "type": "string"
        }
      ],
      "stateMutability": "view",
      "type": "function"
    },
    {
      "inputs": [],
      "name": "totalSupply",
      "outputs": [
        {
          "internalType": "uint256",
          "name": "",
          "type": "uint256"
        }
      ],
      "stateMutability": "view",
      "type": "function"
    }
  ],
  "bytecode": "0x608060405234801561001057600080fd5b5060405161055838038061055883398101604081905261002f9161011e565b600061003b848261022a565b506001610048838261022a565b506002805460ff191660ff92909216919091179055506102e89050565b634e487b7160e01b600052604160045260246000fd5b600082601f83011261008c57600080fd5b81516001600160401b038111156100a5576100a5610065565b604051601f8201601f19908116603f011681016001600160401b03811182821017156100d3576100d3610065565b6040528181528382016020018510156100eb57600080fd5b60005b8281101561010a576020818601810151838301820152016100ee565b506000918101602001919091529392505050565b60008060006060848603121561013357600080fd5b83516001600160401b0381111561014957600080fd5b6101558682870161007b565b602086015190945090506001600160401b0381111561017357600080fd5b61017f8682870161007b565b925050604084015160ff8116811461019657600080fd5b809150509250925092565b600181811c908216806101b557607f821691505b6020821081036101d557634e487b7160e01b600052602260045260246000fd5b50919050565b601f82111561022557806000526020600020601f840160051c810160208510156102025750805b601f840160051c820191505b81811015610222576000815560010161020e565b50505b505050565b81516001600160401b0381111561024357610243610065565b6102578161025184546101a1565b846101db565b6020601f82116001811461028b57600083156102735750848201515b600019600385901b1c1916600184901b178455610222565b600084815260208120601f198516915b828110156102bb578785015182556020948501946001909201910161029b565b50848210156102d95786840151600019600387901b60f8161c191681555b50505050600190811b01905550565b610261806102f76000396000f3fe608060405234801561001057600080fd5b50600436106100575760003560e01c806306fdde031461005c57806318160ddd1461007a578063313ce5671461009157806370a08231146100b057806395d89b41146100d0575b600080fd5b6100646100d8565b6040516100719190610173565b60405180910390f35b61008360035481565b604051908152602001610071565b60025461009e9060ff1681565b60405160ff9091168152602001610071565b6100836100be3660046101c1565b60046020526000908152604090205481565b610064610166565b600080546100e5906101f1565b80601f0160208091040260200160405190810160405280929190818152602001828054610111906101f1565b801561015e5780601f106101335761010080835404028352916020019161015e565b820191906000526020600020905b81548152906001019060200180831161014157829003601f168201915b505050505081565b600180546100e5906101f1565b602081526000825180602084015260005b818110156101a15760208186018101516040868401015201610184565b506000604082850101526040601f19601f83011684010191505092915050565b6000602082840312156101d357600080fd5b81356001600160a01b03811681146101ea57600080fd5b9392505050565b600181811c9082168061020557607f821691505b60208210810361022557634e487b7160e01b600052602260045260246000fd5b5091905056fea264697066735822122089068521e97a91145f7df24f7e1bdbed5a895f69013104ab00b2750c72d4668964736f6c634300081c0033",
  "linkReferences": {},
  "deployedLinkReferences": {}
}