{
  "_format": "hh-sol-artifact-1",
  "contractName": "MyToken",
  "sourceName": "contracts/MyToken.sol",
  "abi": [
    {
      "inputs": [
        {
          "internalType": "string",
          "name": "_name",
          "type": "string"
        },
        {
          "internalType": "string",
          "name": "_symbol",
          "type": "string"
        },
        {
          "internalType": "uint8",
          "name": "_decimal",
          "type": "uint8"
        }
      ],
      "stateMutability": "nonpayable",
      "type": "constructor"
    },
    {
      "inputs": [
        {
          "internalType": "address",
          "name": "",
          "type": "address"
        }
      ],
      "name": "balanceOf",
      "outputs": [
        {
          "internalType": "uint256",
          "name": "",
          "type": "uint256"
        }
      ],
      "stateMutability": "view",
      "type": "function"
    },
    {
      "inputs": [],
      "name": "decimals",
      "outputs": [
        {
          "internalType": "uint8",
          "name": "",
          "type": "uint8"
        }
      ],
      "stateMutability": "view",
      "type": "function"
    },
    {
      "inputs": [],
      "name": "name",
      "outputs": [
        {
          "internalType": "string",
          "name": "",
          "type": "string"
        }
      ],
      "stateMutability": "view",
      "type": "function"
    },
    {
      "inputs": [],
      "name": "symbol",
      "outputs": [
        {
          "internalType": "string",
          "name": "",
          "type": "string"
        }
      ],
      "stateMutability": "view",
      "type": "function"
    },
    {
      "inputs": [],
      "name": "totalSupply",
      "outputs": [
        {
          "internalType": "uint256",
          "name": "",
          "type": "uint256"
        }
      ],
      "stateMutability": "view",
      "type": "function"
    },
    {
      "inputs": [
        {
          "internalType": "address",
          "name": "to",
          "type": "address"
        },
        {
          "internalType": "uint256",
          "name": "amount",
          "type": "uint256"
        }
      ],
      "name": "transfer",
      "outputs": [],
      "stateMutability": "nonpayable",
      "type": "function"
    }
  ],
  "bytecode": "0x608060405234801561001057600080fd5b506040516107e93803806107e983398101604081905261002f91610184565b600061003b8482610290565b5060016100488382610290565b506002805460ff191660ff831690811790915561007b9061006a90600a61044d565b610075906001610460565b33610083565b50505061048a565b81600360008282546100959190610477565b90915550506001600160a01b038116600090815260046020526040812080548492906100c2908490610477565b90915550505050565b634e487b7160e01b600052604160045260246000fd5b600082601f8301126100f257600080fd5b81516001600160401b0381111561010b5761010b6100cb565b604051601f8201601f19908116603f011681016001600160401b0381118282101715610139576101396100cb565b60405281815283820160200185101561015157600080fd5b60005b8281101561017057602081860181015183830182015201610154565b506000918101602001919091529392505050565b60008060006060848603121561019957600080fd5b83516001600160401b038111156101af57600080fd5b6101bb868287016100e1565b602086015190945090506001600160401b038111156101d957600080fd5b6101e5868287016100e1565b925050604084015160ff811681146101fc57600080fd5b809150509250925092565b600181811c9082168061021b57607f821691505b60208210810361023b57634e487b7160e01b600052602260045260246000fd5b50919050565b601f82111561028b57806000526020600020601f840160051c810160208510156102685750805b601f840160051c820191505b818110156102885760008155600101610274565b50505b505050565b81516001600160401b038111156102a9576102a96100cb565b6102bd816102b78454610207565b84610241565b6020601f8211600181146102f157600083156102d95750848201515b600019600385901b1c1916600184901b178455610288565b600084815260208120601f198516915b828110156103215787850151825560209485019460019092019101610301565b508482101561033f5786840151600019600387901b60f8161c191681555b50505050600190811b01905550565b634e487b7160e01b600052601160045260246000fd5b6001815b600184111561039f578085048111156103835761038361034e565b600184161561039157908102905b60019390931c928002610368565b935093915050565b6000826103b657506001610447565b816103c357506000610447565b81600181146103d957600281146103e3576103ff565b6001915050610447565b60ff8411156103f4576103f461034e565b50506001821b610447565b5060208310610133831016604e8410600b8410161715610422575081810a610447565b61042f6000198484610364565b80600019048211156104435761044361034e565b0290505b92915050565b600061045983836103a7565b9392505050565b80820281158282048414176104475761044761034e565b808201808211156104475761044761034e565b610350806104996000396000f3fe608060405234801561001057600080fd5b50600436106100625760003560e01c806306fdde031461006757806318160ddd14610085578063313ce5671461009c57806370a08231146100bb57806395d89b41146100db578063a9059cbb146100e3575b600080fd5b61006f6100f8565b60405161007c91906101e8565b60405180910390f35b61008e60035481565b60405190815260200161007c565b6002546100a99060ff1681565b60405160ff909116815260200161007c565b61008e6100c9366004610252565b60046020526000908152604090205481565b61006f610186565b6100f66100f1366004610274565b610193565b005b600080546101059061029e565b80601f01602080910402602001604051908101604052809291908181526020018280546101319061029e565b801561017e5780601f106101535761010080835404028352916020019161017e565b820191906000526020600020905b81548152906001019060200180831161016157829003601f168201915b505050505081565b600180546101059061029e565b33600090815260046020526040812080548392906101b29084906102ee565b90915550506001600160a01b038216600090815260046020526040812080548392906101df908490610307565b90915550505050565b602081526000825180602084015260005b8181101561021657602081860181015160408684010152016101f9565b506000604082850101526040601f19601f83011684010191505092915050565b80356001600160a01b038116811461024d57600080fd5b919050565b60006020828403121561026457600080fd5b61026d82610236565b9392505050565b6000806040838503121561028757600080fd5b61029083610236565b946020939093013593505050565b600181811c908216806102b257607f821691505b6020821081036102d257634e487b7160e01b600052602260045260246000fd5b50919050565b634e487b7160e01b600052601160045260246000fd5b81810381811115610301576103016102d8565b92915050565b80820180821115610301576103016102d856fea2646970667358221220b23ad28913e980b247fc86284d0ccbc93683ac66d586525d3fd1f7a93add4d2464736f6c634300081c0033",
  "linkReferences": {},
  "deployedLinkReferences": {}
}